{
  "abi": [
    {
      "inputs": [
        {
          "internalType": "string",
          "name": "baseURI",
          "type": "string"
        },
        {
          "internalType": "address",
          "name": "whitelistContract",
          "type": "address"
        }
      ],
      "stateMutability": "nonpayable",
      "type": "constructor"
    },
    {
      "anonymous": false,
      "inputs": [
        {
          "indexed": true,
          "internalType": "address",
          "name": "owner",
          "type": "address"
        },
        {
          "indexed": true,
          "internalType": "address",
          "name": "approved",
          "type": "address"
        },
        {
          "indexed": true,
          "internalType": "uint256",
          "name": "tokenId",
          "type": "uint256"
        }
      ],
      "name": "Approval",
      "type": "event"
    },
    {
      "anonymous": false,
      "inputs": [
        {
          "indexed": true,
          "internalType": "address",
          "name": "owner",
          "type": "address"
        },
        {
          "indexed": true,
          "internalType": "address",
          "name": "operator",
          "type": "address"
        },
        {
          "indexed": false,
          "internalType": "bool",
          "name": "approved",
          "type": "bool"
        }
      ],
      "name": "ApprovalForAll",
      "type": "event"
    },
    {
      "anonymous": false,
      "inputs": [
        {
          "indexed": true,
          "internalType": "address",
          "name": "previousOwner",
          "type": "address"
        },
        {
          "indexed": true,
          "internalType": "address",
          "name": "newOwner",
          "type": "address"
        }
      ],
      "name": "OwnershipTransferred",
      "type": "event"
    },
    {
      "anonymous": false,
      "inputs": [
        {
          "indexed": false,
          "internalType": "address",
          "name": "account",
          "type": "address"
        }
      ],
      "name": "Paused",
      "type": "event"
    },
    {
      "anonymous": false,
      "inputs": [
        {
          "indexed": true,
          "internalType": "address",
          "name": "from",
          "type": "address"
        },
        {
          "indexed": true,
          "internalType": "address",
          "name": "to",
          "type": "address"
        },
        {
          "indexed": true,
          "internalType": "uint256",
          "name": "tokenId",
          "type": "uint256"
        }
      ],
      "name": "Transfer",
      "type": "event"
    },
    {
      "anonymous": false,
      "inputs": [
        {
          "indexed": false,
          "internalType": "address",
          "name": "account",
          "type": "address"
        }
      ],
      "name": "Unpaused",
      "type": "event"
    },
    {
      "inputs": [
        {
          "internalType": "address",
          "name": "to",
          "type": "address"
        },
        {
          "internalType": "uint256",
          "name": "tokenId",
          "type": "uint256"
        }
      ],
      "name": "approve",
      "outputs": [],
      "stateMutability": "nonpayable",
      "type": "function"
    },
    {
      "inputs": [
        {
          "internalType": "address",
          "name": "owner",
          "type": "address"
        }
      ],
      "name": "balanceOf",
      "outputs": [
        {
          "internalType": "uint256",
          "name": "",
          "type": "uint256"
        }
      ],
      "stateMutability": "view",
      "type": "function"
    },
    {
      "inputs": [
        {
          "internalType": "uint256",
          "name": "tokenId",
          "type": "uint256"
        }
      ],
      "name": "burn",
      "outputs": [],
      "stateMutability": "nonpayable",
      "type": "function"
    },
    {
      "inputs": [
        {
          "internalType": "uint256",
          "name": "tokenId",
          "type": "uint256"
        }
      ],
      "name": "getApproved",
      "outputs": [
        {
          "internalType": "address",
          "name": "",
          "type": "address"
        }
      ],
      "stateMutability": "view",
      "type": "function"
    },
    {
      "inputs": [
        {
          "internalType": "address",
          "name": "to",
          "type": "address"
        },
        {
          "internalType": "uint8",
          "name": "quantity",
          "type": "uint8"
        }
      ],
      "name": "giveaway",
      "outputs": [],
      "stateMutability": "nonpayable",
      "type": "function"
    },
    {
      "inputs": [
        {
          "internalType": "address",
          "name": "owner",
          "type": "address"
        },
        {
          "internalType": "address",
          "name": "operator",
          "type": "address"
        }
      ],
      "name": "isApprovedForAll",
      "outputs": [
        {
          "internalType": "bool",
          "name": "",
          "type": "bool"
        }
      ],
      "stateMutability": "view",
      "type": "function"
    },
    {
      "inputs": [],
      "name": "maxTokenIds",
      "outputs": [
        {
          "internalType": "uint256",
          "name": "",
          "type": "uint256"
        }
      ],
      "stateMutability": "view",
      "type": "function"
    },
    {
      "inputs": [
        {
          "internalType": "uint256",
          "name": "quantity",
          "type": "uint256"
        }
      ],
      "name": "mint",
      "outputs": [],
      "stateMutability": "payable",
      "type": "function"
    },
    {
      "inputs": [],
      "name": "mintPrice",
      "outputs": [
        {
          "internalType": "uint256",
          "name": "",
          "type": "uint256"
        }
      ],
      "stateMutability": "view",
      "type": "function"
    },
    {
      "inputs": [],
      "name": "name",
      "outputs": [
        {
          "internalType": "string",
          "name": "",
          "type": "string"
        }
      ],
      "stateMutability": "view",
      "type": "function"
    },
    {
      "inputs": [],
      "name": "owner",
      "outputs": [
        {
          "internalType": "address",
          "name": "",
          "type": "address"
        }
      ],
      "stateMutability": "view",
      "type": "function"
    },
    {
      "inputs": [
        {
          "internalType": "uint256",
          "name": "tokenId",
          "type": "uint256"
        }
      ],
      "name": "ownerOf",
      "outputs": [
        {
          "internalType": "address",
          "name": "",
          "type": "address"
        }
      ],
      "stateMutability": "view",
      "type": "function"
    },
    {
      "inputs": [],
      "name": "paused",
      "outputs": [
        {
          "internalType": "bool",
          "name": "",
          "type": "bool"
        }
      ],
      "stateMutability": "view",
      "type": "function"
    },
    {
      "inputs": [],
      "name": "presaleEnded",
      "outputs": [
        {
          "internalType": "uint256",
          "name": "",
          "type": "uint256"
        }
      ],
      "stateMutability": "view",
      "type": "function"
    },
    {
      "inputs": [
        {
          "internalType": "uint8",
          "name": "quantity",
          "type": "uint8"
        }
      ],
      "name": "presaleMint",
      "outputs": [],
      "stateMutability": "payable",
      "type": "function"
    },
    {
      "inputs": [],
      "name": "presaleStarted",
      "outputs": [
        {
          "internalType": "bool",
          "name": "",
          "type": "bool"
        }
      ],
      "stateMutability": "view",
      "type": "function"
    },
    {
      "inputs": [],
      "name": "renounceOwnership",
      "outputs": [],
      "stateMutability": "nonpayable",
      "type": "function"
    },
    {
      "inputs": [],
      "name": "resetPresale",
      "outputs": [],
      "stateMutability": "nonpayable",
      "type": "function"
    },
    {
      "inputs": [
        {
          "internalType": "address",
          "name": "from",
          "type": "address"
        },
        {
          "internalType": "address",
          "name": "to",
          "type": "address"
        },
        {
          "internalType": "uint256",
          "name": "tokenId",
          "type": "uint256"
        }
      ],
      "name": "safeTransferFrom",
      "outputs": [],
      "stateMutability": "nonpayable",
      "type": "function"
    },
    {
      "inputs": [
        {
          "internalType": "address",
          "name": "from",
          "type": "address"
        },
        {
          "internalType": "address",
          "name": "to",
          "type": "address"
        },
        {
          "internalType": "uint256",
          "name": "tokenId",
          "type": "uint256"
        },
        {
          "internalType": "bytes",
          "name": "data",
          "type": "bytes"
        }
      ],
      "name": "safeTransferFrom",
      "outputs": [],
      "stateMutability": "nonpayable",
      "type": "function"
    },
    {
      "inputs": [],
      "name": "saleAfter",
      "outputs": [
        {
          "internalType": "uint256",
          "name": "",
          "type": "uint256"
        }
      ],
      "stateMutability": "view",
      "type": "function"
    },
    {
      "inputs": [
        {
          "internalType": "address",
          "name": "operator",
          "type": "address"
        },
        {
          "internalType": "bool",
          "name": "approved",
          "type": "bool"
        }
      ],
      "name": "setApprovalForAll",
      "outputs": [],
      "stateMutability": "nonpayable",
      "type": "function"
    },
    {
      "inputs": [
        {
          "internalType": "string",
          "name": "newURI",
          "type": "string"
        }
      ],
      "name": "setBaseURI",
      "outputs": [],
      "stateMutability": "nonpayable",
      "type": "function"
    },
    {
      "inputs": [
        {
          "internalType": "uint256",
          "name": "newPrice",
          "type": "uint256"
        }
      ],
      "name": "setMintPrice",
      "outputs": [],
      "stateMutability": "nonpayable",
      "type": "function"
    },
    {
      "inputs": [
        {
          "internalType": "address",
          "name": "newAddress",
          "type": "address"
        }
      ],
      "name": "setWhitelistContract",
      "outputs": [],
      "stateMutability": "nonpayable",
      "type": "function"
    },
    {
      "inputs": [],
      "name": "startPresale",
      "outputs": [],
      "stateMutability": "nonpayable",
      "type": "function"
    },
    {
      "inputs": [
        {
          "internalType": "bytes4",
          "name": "interfaceId",
          "type": "bytes4"
        }
      ],
      "name": "supportsInterface",
      "outputs": [
        {
          "internalType": "bool",
          "name": "",
          "type": "bool"
        }
      ],
      "stateMutability": "view",
      "type": "function"
    },
    {
      "inputs": [],
      "name": "symbol",
      "outputs": [
        {
          "internalType": "string",
          "name": "",
          "type": "string"
        }
      ],
      "stateMutability": "view",
      "type": "function"
    },
    {
      "inputs": [],
      "name": "togglePause",
      "outputs": [],
      "stateMutability": "nonpayable",
      "type": "function"
    },
    {
      "inputs": [
        {
          "internalType": "uint256",
          "name": "index",
          "type": "uint256"
        }
      ],
      "name": "tokenByIndex",
      "outputs": [
        {
          "internalType": "uint256",
          "name": "",
          "type": "uint256"
        }
      ],
      "stateMutability": "view",
      "type": "function"
    },
    {
      "inputs": [
        {
          "internalType": "address",
          "name": "owner",
          "type": "address"
        },
        {
          "internalType": "uint256",
          "name": "index",
          "type": "uint256"
        }
      ],
      "name": "tokenOfOwnerByIndex",
      "outputs": [
        {
          "internalType": "uint256",
          "name": "",
          "type": "uint256"
        }
      ],
      "stateMutability": "view",
      "type": "function"
    },
    {
      "inputs": [
        {
          "internalType": "uint256",
          "name": "tokenId",
          "type": "uint256"
        }
      ],
      "name": "tokenURI",
      "outputs": [
        {
          "internalType": "string",
          "name": "",
          "type": "string"
        }
      ],
      "stateMutability": "view",
      "type": "function"
    },
    {
      "inputs": [],
      "name": "totalSupply",
      "outputs": [
        {
          "internalType": "uint256",
          "name": "",
          "type": "uint256"
        }
      ],
      "stateMutability": "view",
      "type": "function"
    },
    {
      "inputs": [
        {
          "internalType": "address",
          "name": "from",
          "type": "address"
        },
        {
          "internalType": "address",
          "name": "to",
          "type": "address"
        },
        {
          "internalType": "uint256",
          "name": "tokenId",
          "type": "uint256"
        }
      ],
      "name": "transferFrom",
      "outputs": [],
      "stateMutability": "nonpayable",
      "type": "function"
    },
    {
      "inputs": [
        {
          "internalType": "address",
          "name": "newOwner",
          "type": "address"
        }
      ],
      "name": "transferOwnership",
      "outputs": [],
      "stateMutability": "nonpayable",
      "type": "function"
    },
    {
      "inputs": [],
      "name": "withdraw",
      "outputs": [],
      "stateMutability": "nonpayable",
      "type": "function"
    }
  ],
  "bytecode": {
    "object": "0x6080604052670de0b6b3a7640000600d556104b0600e553480156200002357600080fd5b50604051620029383803806200293883398101604081905262000046916200017c565b60405180604001604052806009815260200168135bdbc815dbdc9b1960ba1b815250604051806040016040528060038152602001624d4f4f60e81b8152508160009081620000959190620002fc565b506001620000a48282620002fc565b5050600a805460ff19169055506001600b55620000c133620000f7565b6013620000cf8382620002fc565b50601280546001600160a01b0319166001600160a01b039290921691909117905550620003c8565b600c80546001600160a01b038381166001600160a01b0319831681179093556040519116919082907f8be0079c531659141344cd1fd0a4f28419497f9722a3daafe3b4186f6b6457e090600090a35050565b634e487b7160e01b600052604160045260246000fd5b80516001600160a01b03811681146200017757600080fd5b919050565b600080604083850312156200019057600080fd5b82516001600160401b0380821115620001a857600080fd5b818501915085601f830112620001bd57600080fd5b815181811115620001d257620001d262000149565b604051601f8201601f19908116603f01168101908382118183101715620001fd57620001fd62000149565b816040528281526020935088848487010111156200021a57600080fd5b600091505b828210156200023e57848201840151818301850152908301906200021f565b82821115620002505760008484830101525b9550620002629150508582016200015f565b925050509250929050565b600181811c908216806200028257607f821691505b602082108103620002a357634e487b7160e01b600052602260045260246000fd5b50919050565b601f821115620002f757600081815260208120601f850160051c81016020861015620002d25750805b601f850160051c820191505b81811015620002f357828155600101620002de565b5050505b505050565b81516001600160401b0381111562000318576200031862000149565b62000330816200032984546200026d565b84620002a9565b602080601f8311600181146200036857600084156200034f5750858301515b600019600386901b1c1916600185901b178555620002f3565b600085815260208120601f198616915b82811015620003995788860151825594840194600190910190840162000378565b5085821015620003b85787850151600019600388901b60f8161c191681555b5050505050600190811b01905550565b61256080620003d86000396000f3fe60806040526004361061020f5760003560e01c80636817c76c11610118578063b88d4fde116100a0578063e580b2b01161006f578063e580b2b0146105a7578063e985e9c5146105bd578063f2fde38b14610606578063f4a0a52814610626578063f617f9201461064657600080fd5b8063b88d4fde1461053d578063c4ae31681461055d578063c87b56dd14610572578063d68381ec1461059257600080fd5b806395d89b41116100e757806395d89b41146104bf578063a0712d68146104d4578063a22cb465146104e7578063a24ffbd414610507578063af17981d1461052757600080fd5b80636817c76c1461045657806370a082311461046c578063715018a61461048c5780638da5cb5b146104a157600080fd5b80632f745c591161019b5780634f6ccce71161016a5780634f6ccce7146103c857806355f804b3146103e85780635c975abb146104085780635f769621146104205780636352211e1461043657600080fd5b80632f745c59146103535780633ccfd60b1461037357806342842e0e1461038857806342966c68146103a857600080fd5b8063081812fc116101e2578063081812fc1461029c578063095ea7b3146102d457806312f26140146102f457806318160ddd1461031457806323b872dd1461033357600080fd5b806301ffc9a71461021457806304549d6f1461024957806304c98b2b1461026357806306fdde031461027a575b600080fd5b34801561022057600080fd5b5061023461022f366004611e0f565b610659565b60405190151581526020015b60405180910390f35b34801561025557600080fd5b506010546102349060ff1681565b34801561026f57600080fd5b5061027861066a565b005b34801561028657600080fd5b5061028f610691565b6040516102409190611e8b565b3480156102a857600080fd5b506102bc6102b7366004611e9e565b610723565b6040516001600160a01b039091168152602001610240565b3480156102e057600080fd5b506102786102ef366004611ed3565b61074a565b34801561030057600080fd5b5061027861030f366004611efd565b610864565b34801561032057600080fd5b506008545b604051908152602001610240565b34801561033f57600080fd5b5061027861034e366004611f18565b61088e565b34801561035f57600080fd5b5061032561036e366004611ed3565b6108c0565b34801561037f57600080fd5b50610278610956565b34801561039457600080fd5b506102786103a3366004611f18565b610a47565b3480156103b457600080fd5b506102786103c3366004611e9e565b610a62565b3480156103d457600080fd5b506103256103e3366004611e9e565b610a93565b3480156103f457600080fd5b50610278610403366004611f54565b610b26565b34801561041457600080fd5b50600a5460ff16610234565b34801561042c57600080fd5b5061032561037881565b34801561044257600080fd5b506102bc610451366004611e9e565b610b3b565b34801561046257600080fd5b50610325600d5481565b34801561047857600080fd5b50610325610487366004611efd565b610b9b565b34801561049857600080fd5b50610278610c21565b3480156104ad57600080fd5b50600c546001600160a01b03166102bc565b3480156104cb57600080fd5b5061028f610c35565b6102786104e2366004611e9e565b610c44565b3480156104f357600080fd5b50610278610502366004611fc6565b610d6c565b34801561051357600080fd5b50610278610522366004612013565b610d7b565b34801561053357600080fd5b50610325600e5481565b34801561054957600080fd5b5061027861055836600461205c565b610dff565b34801561056957600080fd5b50610278610e31565b34801561057e57600080fd5b5061028f61058d366004611e9e565b610e53565b34801561059e57600080fd5b50610278610e96565b3480156105b357600080fd5b50610325600f5481565b3480156105c957600080fd5b506102346105d8366004612138565b6001600160a01b03918216600090815260056020908152604080832093909416825291909152205460ff1690565b34801561061257600080fd5b50610278610621366004611efd565b610eaf565b34801561063257600080fd5b50610278610641366004611e9e565b610f25565b610278610654366004612162565b610f32565b6000610664826110a3565b92915050565b6106726110c8565b6010805460ff19166001179055600e5461068c9042612193565b600f55565b6060600080546106a0906121ab565b80601f01602080910402602001604051908101604052809291908181526020018280546106cc906121ab565b80156107195780601f106106ee57610100808354040283529160200191610719565b820191906000526020600020905b8154815290600101906020018083116106fc57829003601f168201915b5050505050905090565b600061072e82611122565b506000908152600460205260409020546001600160a01b031690565b600061075582610b3b565b9050806001600160a01b0316836001600160a01b0316036107c75760405162461bcd60e51b815260206004820152602160248201527f4552433732313a20617070726f76616c20746f2063757272656e74206f776e656044820152603960f91b60648201526084015b60405180910390fd5b336001600160a01b03821614806107e357506107e381336105d8565b6108555760405162461bcd60e51b815260206004820152603e60248201527f4552433732313a20617070726f76652063616c6c6572206973206e6f7420746f60448201527f6b656e206f776e6572206e6f7220617070726f76656420666f7220616c6c000060648201526084016107be565b61085f8383611181565b505050565b61086c6110c8565b601280546001600160a01b0319166001600160a01b0392909216919091179055565b610899335b826111ef565b6108b55760405162461bcd60e51b81526004016107be906121e5565b61085f83838361126e565b60006108cb83610b9b565b821061092d5760405162461bcd60e51b815260206004820152602b60248201527f455243373231456e756d657261626c653a206f776e657220696e646578206f7560448201526a74206f6620626f756e647360a81b60648201526084016107be565b506001600160a01b03919091166000908152600660209081526040808320938352929052205490565b61095e6110c8565b6002600b54036109b05760405162461bcd60e51b815260206004820152601f60248201527f5265656e7472616e637947756172643a207265656e7472616e742063616c6c0060448201526064016107be565b6002600b55604051600090339047908381818185875af1925050503d80600081146109f7576040519150601f19603f3d011682016040523d82523d6000602084013e6109fc565b606091505b5050905080610a3f5760405162461bcd60e51b815260206004820152600f60248201526e15da5d1a191c985dc819985a5b1959608a1b60448201526064016107be565b506001600b55565b61085f83838360405180602001604052806000815250610dff565b610a6b33610893565b610a875760405162461bcd60e51b81526004016107be906121e5565b610a9081611415565b50565b6000610a9e60085490565b8210610b015760405162461bcd60e51b815260206004820152602c60248201527f455243373231456e756d657261626c653a20676c6f62616c20696e646578206f60448201526b7574206f6620626f756e647360a01b60648201526084016107be565b60088281548110610b1457610b14612233565b90600052602060002001549050919050565b610b2e6110c8565b601361085f828483612297565b6000818152600260205260408120546001600160a01b0316806106645760405162461bcd60e51b8152602060048201526018602482015277115490cdcc8c4e881a5b9d985b1a59081d1bdad95b88125160421b60448201526064016107be565b60006001600160a01b038216610c055760405162461bcd60e51b815260206004820152602960248201527f4552433732313a2061646472657373207a65726f206973206e6f7420612076616044820152683634b21037bbb732b960b91b60648201526084016107be565b506001600160a01b031660009081526003602052604090205490565b610c296110c8565b610c3360006114bc565b565b6060600180546106a0906121ab565b610c4c61150e565b6000610c5760115490565b60105490915060ff168015610c6e5750600f544210155b610cba5760405162461bcd60e51b815260206004820152601760248201527f5075626c69632073616c65206e6f74207374617274656400000000000000000060448201526064016107be565b600d54610cc79083612358565b341015610d045760405162461bcd60e51b815260206004820152600b60248201526a57726f6e6720707269636560a81b60448201526064016107be565b610378610d118383612193565b10610d2e5760405162461bcd60e51b81526004016107be90612377565b60005b8281101561085f57610d4c33610d478385612193565b611554565b610d5a601180546001019055565b80610d64816123a2565b915050610d31565b610d7733838361156e565b5050565b610d836110c8565b6000610d8e60115490565b9050610378610da060ff841683612193565b10610dbd5760405162461bcd60e51b81526004016107be90612377565b60005b8260ff16811015610df957610dd984610d478385612193565b610de7601180546001019055565b80610df1816123a2565b915050610dc0565b50505050565b610e0933836111ef565b610e255760405162461bcd60e51b81526004016107be906121e5565b610df98484848461163c565b610e396110c8565b600a5460ff16610e4b57610c3361166f565b610c336116c9565b6060610e5e82611122565b610e66611702565b610e6f83611711565b604051602001610e809291906123bb565b6040516020818303038152906040529050919050565b610e9e6110c8565b6010805460ff191690556000600f55565b610eb76110c8565b6001600160a01b038116610f1c5760405162461bcd60e51b815260206004820152602660248201527f4f776e61626c653a206e6577206f776e657220697320746865207a65726f206160448201526564647265737360d01b60648201526084016107be565b610a90816114bc565b610f2d6110c8565b600d55565b610f3a61150e565b6000610f4560115490565b9050610f5033611812565b610f8e5760405162461bcd60e51b815260206004820152600f60248201526e139bdd081dda1a5d195b1a5cdd1959608a1b60448201526064016107be565b60105460ff168015610fa15750600f5442105b610fed5760405162461bcd60e51b815260206004820152601c60248201527f50726573616c6520656e646564206f72206e6f7420737461727465640000000060448201526064016107be565b600d54610ffd9060ff8416612358565b34101561103a5760405162461bcd60e51b815260206004820152600b60248201526a57726f6e6720707269636560a81b60448201526064016107be565b61037861104a60ff841683612193565b106110675760405162461bcd60e51b81526004016107be90612377565b60005b8260ff1681101561085f5761108333610d478385612193565b611091601180546001019055565b8061109b816123a2565b91505061106a565b60006001600160e01b0319821663780e9d6360e01b148061066457506106648261188b565b600c546001600160a01b03163314610c335760405162461bcd60e51b815260206004820181905260248201527f4f776e61626c653a2063616c6c6572206973206e6f7420746865206f776e657260448201526064016107be565b6000818152600260205260409020546001600160a01b0316610a905760405162461bcd60e51b8152602060048201526018602482015277115490cdcc8c4e881a5b9d985b1a59081d1bdad95b88125160421b60448201526064016107be565b600081815260046020526040902080546001600160a01b0319166001600160a01b03841690811790915581906111b682610b3b565b6001600160a01b03167f8c5be1e5ebec7d5bd14f71427d1e84f3dd0314c0f7b2291e5b200ac8c7c3b92560405160405180910390a45050565b6000806111fb83610b3b565b9050806001600160a01b0316846001600160a01b0316148061124257506001600160a01b0380821660009081526005602090815260408083209388168352929052205460ff165b806112665750836001600160a01b031661125b84610723565b6001600160a01b0316145b949350505050565b826001600160a01b031661128182610b3b565b6001600160a01b0316146112e55760405162461bcd60e51b815260206004820152602560248201527f4552433732313a207472616e736665722066726f6d20696e636f72726563742060448201526437bbb732b960d91b60648201526084016107be565b6001600160a01b0382166113475760405162461bcd60e51b8152602060048201526024808201527f4552433732313a207472616e7366657220746f20746865207a65726f206164646044820152637265737360e01b60648201526084016107be565b6113528383836118db565b61135d600082611181565b6001600160a01b03831660009081526003602052604081208054600192906113869084906123fa565b90915550506001600160a01b03821660009081526003602052604081208054600192906113b4908490612193565b909155505060008181526002602052604080822080546001600160a01b0319166001600160a01b0386811691821790925591518493918716917fddf252ad1be2c89b69c2b068fc378daa952ba7f163c4a11628f55a4df523b3ef91a4505050565b600061142082610b3b565b905061142e816000846118db565b611439600083611181565b6001600160a01b03811660009081526003602052604081208054600192906114629084906123fa565b909155505060008281526002602052604080822080546001600160a01b0319169055518391906001600160a01b038416907fddf252ad1be2c89b69c2b068fc378daa952ba7f163c4a11628f55a4df523b3ef908390a45050565b600c80546001600160a01b038381166001600160a01b0319831681179093556040519116919082907f8be0079c531659141344cd1fd0a4f28419497f9722a3daafe3b4186f6b6457e090600090a35050565b600a5460ff1615610c335760405162461bcd60e51b815260206004820152601060248201526f14185d5cd8589b194e881c185d5cd95960821b60448201526064016107be565b610d778282604051806020016040528060008152506118e6565b816001600160a01b0316836001600160a01b0316036115cf5760405162461bcd60e51b815260206004820152601960248201527f4552433732313a20617070726f766520746f2063616c6c65720000000000000060448201526064016107be565b6001600160a01b03838116600081815260056020908152604080832094871680845294825291829020805460ff191686151590811790915591519182527f17307eab39ab6107e8899845ad3d59bd9653f200f220920489ca2b5937696c31910160405180910390a3505050565b61164784848461126e565b61165384848484611919565b610df95760405162461bcd60e51b81526004016107be90612411565b61167761150e565b600a805460ff191660011790557f62e78cea01bee320cd4e420270b5ea74000d11b0c9f74754ebdbfc544b05a2586116ac3390565b6040516001600160a01b03909116815260200160405180910390a1565b6116d1611a1a565b600a805460ff191690557f5db9ee0a495bf2e6ff9c91a7834c1ba4fdd244a5e8aa4e537bd38aeae4b073aa336116ac565b6060601380546106a0906121ab565b6060816000036117385750506040805180820190915260018152600360fc1b602082015290565b8160005b8115611762578061174c816123a2565b915061175b9050600a83612479565b915061173c565b60008167ffffffffffffffff81111561177d5761177d612046565b6040519080825280601f01601f1916602001820160405280156117a7576020820181803683370190505b5090505b8415611266576117bc6001836123fa565b91506117c9600a8661248d565b6117d4906030612193565b60f81b8183815181106117e9576117e9612233565b60200101906001600160f81b031916908160001a90535061180b600a86612479565b94506117ab565b6012546040516370a0823160e01b81526001600160a01b03838116600483015260009283929116906370a0823190602401602060405180830381865afa158015611860573d6000803e3d6000fd5b505050506040513d601f19601f8201168201806040525081019061188491906124a1565b1192915050565b60006001600160e01b031982166380ac58cd60e01b14806118bc57506001600160e01b03198216635b5e139f60e01b145b8061066457506301ffc9a760e01b6001600160e01b0319831614610664565b61085f838383611a63565b6118f08383611b1b565b6118fd6000848484611919565b61085f5760405162461bcd60e51b81526004016107be90612411565b60006001600160a01b0384163b15611a0f57604051630a85bd0160e11b81526001600160a01b0385169063150b7a029061195d9033908990889088906004016124ba565b6020604051808303816000875af1925050508015611998575060408051601f3d908101601f19168201909252611995918101906124f7565b60015b6119f5573d8080156119c6576040519150601f19603f3d011682016040523d82523d6000602084013e6119cb565b606091505b5080516000036119ed5760405162461bcd60e51b81526004016107be90612411565b805181602001fd5b6001600160e01b031916630a85bd0160e11b149050611266565b506001949350505050565b600a5460ff16610c335760405162461bcd60e51b815260206004820152601460248201527314185d5cd8589b194e881b9bdd081c185d5cd95960621b60448201526064016107be565b6001600160a01b038316611abe57611ab981600880546000838152600960205260408120829055600182018355919091527ff3f7a9fe364faab93b216da50a3214154f22a0a2b415b23a84c8169e8b636ee30155565b611ae1565b816001600160a01b0316836001600160a01b031614611ae157611ae18382611c69565b6001600160a01b038216611af85761085f81611d06565b826001600160a01b0316826001600160a01b03161461085f5761085f8282611db5565b6001600160a01b038216611b715760405162461bcd60e51b815260206004820181905260248201527f4552433732313a206d696e7420746f20746865207a65726f206164647265737360448201526064016107be565b6000818152600260205260409020546001600160a01b031615611bd65760405162461bcd60e51b815260206004820152601c60248201527f4552433732313a20746f6b656e20616c7265616479206d696e7465640000000060448201526064016107be565b611be2600083836118db565b6001600160a01b0382166000908152600360205260408120805460019290611c0b908490612193565b909155505060008181526002602052604080822080546001600160a01b0319166001600160a01b03861690811790915590518392907fddf252ad1be2c89b69c2b068fc378daa952ba7f163c4a11628f55a4df523b3ef908290a45050565b60006001611c7684610b9b565b611c8091906123fa565b600083815260076020526040902054909150808214611cd3576001600160a01b03841660009081526006602090815260408083208584528252808320548484528184208190558352600790915290208190555b5060009182526007602090815260408084208490556001600160a01b039094168352600681528383209183525290812055565b600854600090611d18906001906123fa565b60008381526009602052604081205460088054939450909284908110611d4057611d40612233565b906000526020600020015490508060088381548110611d6157611d61612233565b6000918252602080832090910192909255828152600990915260408082208490558582528120556008805480611d9957611d99612514565b6001900381819060005260206000200160009055905550505050565b6000611dc083610b9b565b6001600160a01b039093166000908152600660209081526040808320868452825280832085905593825260079052919091209190915550565b6001600160e01b031981168114610a9057600080fd5b600060208284031215611e2157600080fd5b8135611e2c81611df9565b9392505050565b60005b83811015611e4e578181015183820152602001611e36565b83811115610df95750506000910152565b60008151808452611e77816020860160208601611e33565b601f01601f19169290920160200192915050565b602081526000611e2c6020830184611e5f565b600060208284031215611eb057600080fd5b5035919050565b80356001600160a01b0381168114611ece57600080fd5b919050565b60008060408385031215611ee657600080fd5b611eef83611eb7565b946020939093013593505050565b600060208284031215611f0f57600080fd5b611e2c82611eb7565b600080600060608486031215611f2d57600080fd5b611f3684611eb7565b9250611f4460208501611eb7565b9150604084013590509250925092565b60008060208385031215611f6757600080fd5b823567ffffffffffffffff80821115611f7f57600080fd5b818501915085601f830112611f9357600080fd5b813581811115611fa257600080fd5b866020828501011115611fb457600080fd5b60209290920196919550909350505050565b60008060408385031215611fd957600080fd5b611fe283611eb7565b915060208301358015158114611ff757600080fd5b809150509250929050565b803560ff81168114611ece57600080fd5b6000806040838503121561202657600080fd5b61202f83611eb7565b915061203d60208401612002565b90509250929050565b634e487b7160e01b600052604160045260246000fd5b6000806000806080858703121561207257600080fd5b61207b85611eb7565b935061208960208601611eb7565b925060408501359150606085013567ffffffffffffffff808211156120ad57600080fd5b818701915087601f8301126120c157600080fd5b8135818111156120d3576120d3612046565b604051601f8201601f19908116603f011681019083821181831017156120fb576120fb612046565b816040528281528a602084870101111561211457600080fd5b82602086016020830137600060208483010152809550505050505092959194509250565b6000806040838503121561214b57600080fd5b61215483611eb7565b915061203d60208401611eb7565b60006020828403121561217457600080fd5b611e2c82612002565b634e487b7160e01b600052601160045260246000fd5b600082198211156121a6576121a661217d565b500190565b600181811c908216806121bf57607f821691505b6020821081036121df57634e487b7160e01b600052602260045260246000fd5b50919050565b6020808252602e908201527f4552433732313a2063616c6c6572206973206e6f7420746f6b656e206f776e6560408201526d1c881b9bdc88185c1c1c9bdd995960921b606082015260800190565b634e487b7160e01b600052603260045260246000fd5b601f82111561085f57600081815260208120601f850160051c810160208610156122705750805b601f850160051c820191505b8181101561228f5782815560010161227c565b505050505050565b67ffffffffffffffff8311156122af576122af612046565b6122c3836122bd83546121ab565b83612249565b6000601f8411600181146122f757600085156122df5750838201355b600019600387901b1c1916600186901b178355612351565b600083815260209020601f19861690835b828110156123285786850135825560209485019460019092019101612308565b50868210156123455760001960f88860031b161c19848701351681555b505060018560011b0183555b5050505050565b60008160001904831182151516156123725761237261217d565b500290565b602080825260119082015270457863656564206d617820737570706c7960781b604082015260600190565b6000600182016123b4576123b461217d565b5060010190565b600083516123cd818460208801611e33565b8351908301906123e1818360208801611e33565b64173539b7b760d91b9101908152600501949350505050565b60008282101561240c5761240c61217d565b500390565b60208082526032908201527f4552433732313a207472616e7366657220746f206e6f6e20455243373231526560408201527131b2b4bb32b91034b6b83632b6b2b73a32b960711b606082015260800190565b634e487b7160e01b600052601260045260246000fd5b60008261248857612488612463565b500490565b60008261249c5761249c612463565b500690565b6000602082840312156124b357600080fd5b5051919050565b6001600160a01b03858116825284166020820152604081018390526080606082018190526000906124ed90830184611e5f565b9695505050505050565b60006020828403121561250957600080fd5b8151611e2c81611df9565b634e487b7160e01b600052603160045260246000fdfea26469706673582212200b574d1df45467f2031709752491999f11a82fe9b803b9a4a0b59c690122d46364736f6c634300080f0033",
    "linkReferences": {}
  },
  "methodIdentifiers": {
    "approve(address,uint256)": "095ea7b3",
    "balanceOf(address)": "70a08231",
    "burn(uint256)": "42966c68",
    "getApproved(uint256)": "081812fc",
    "giveaway(address,uint8)": "a24ffbd4",
    "isApprovedForAll(address,address)": "e985e9c5",
    "maxTokenIds()": "5f769621",
    "mint(uint256)": "a0712d68",
    "mintPrice()": "6817c76c",
    "name()": "06fdde03",
    "owner()": "8da5cb5b",
    "ownerOf(uint256)": "6352211e",
    "paused()": "5c975abb",
    "presaleEnded()": "e580b2b0",
    "presaleMint(uint8)": "f617f920",
    "presaleStarted()": "04549d6f",
    "renounceOwnership()": "715018a6",
    "resetPresale()": "d68381ec",
    "safeTransferFrom(address,address,uint256)": "42842e0e",
    "safeTransferFrom(address,address,uint256,bytes)": "b88d4fde",
    "saleAfter()": "af17981d",
    "setApprovalForAll(address,bool)": "a22cb465",
    "setBaseURI(string)": "55f804b3",
    "setMintPrice(uint256)": "f4a0a528",
    "setWhitelistContract(address)": "12f26140",
    "startPresale()": "04c98b2b",
    "supportsInterface(bytes4)": "01ffc9a7",
    "symbol()": "95d89b41",
    "togglePause()": "c4ae3168",
    "tokenByIndex(uint256)": "4f6ccce7",
    "tokenOfOwnerByIndex(address,uint256)": "2f745c59",
    "tokenURI(uint256)": "c87b56dd",
    "totalSupply()": "18160ddd",
    "transferFrom(address,address,uint256)": "23b872dd",
    "transferOwnership(address)": "f2fde38b",
    "withdraw()": "3ccfd60b"
  },
  "id": 33
}