{
  "abi": [
    {
      "inputs": [
        {
          "internalType": "string",
          "name": "metadata",
          "type": "string"
        }
      ],
      "stateMutability": "nonpayable",
      "type": "constructor"
    },
    {
      "inputs": [],
      "name": "ApprovalCallerNotOwnerNorApproved",
      "type": "error"
    },
    {
      "inputs": [],
      "name": "ApprovalQueryForNonexistentToken",
      "type": "error"
    },
    {
      "inputs": [],
      "name": "ApproveToCaller",
      "type": "error"
    },
    {
      "inputs": [],
      "name": "BalanceQueryForZeroAddress",
      "type": "error"
    },
    {
      "inputs": [],
      "name": "InvalidQueryRange",
      "type": "error"
    },
    {
      "inputs": [],
      "name": "MintERC2309QuantityExceedsLimit",
      "type": "error"
    },
    {
      "inputs": [],
      "name": "MintToZeroAddress",
      "type": "error"
    },
    {
      "inputs": [],
      "name": "MintZeroQuantity",
      "type": "error"
    },
    {
      "inputs": [],
      "name": "OwnerQueryForNonexistentToken",
      "type": "error"
    },
    {
      "inputs": [],
      "name": "OwnershipNotInitializedForExtraData",
      "type": "error"
    },
    {
      "inputs": [],
      "name": "TransferCallerNotOwnerNorApproved",
      "type": "error"
    },
    {
      "inputs": [],
      "name": "TransferFromIncorrectOwner",
      "type": "error"
    },
    {
      "inputs": [],
      "name": "TransferToNonERC721ReceiverImplementer",
      "type": "error"
    },
    {
      "inputs": [],
      "name": "TransferToZeroAddress",
      "type": "error"
    },
    {
      "inputs": [],
      "name": "URIQueryForNonexistentToken",
      "type": "error"
    },
    {
      "anonymous": false,
      "inputs": [
        {
          "indexed": true,
          "internalType": "address",
          "name": "owner",
          "type": "address"
        },
        {
          "indexed": true,
          "internalType": "address",
          "name": "approved",
          "type": "address"
        },
        {
          "indexed": true,
          "internalType": "uint256",
          "name": "tokenId",
          "type": "uint256"
        }
      ],
      "name": "Approval",
      "type": "event"
    },
    {
      "anonymous": false,
      "inputs": [
        {
          "indexed": true,
          "internalType": "address",
          "name": "owner",
          "type": "address"
        },
        {
          "indexed": true,
          "internalType": "address",
          "name": "operator",
          "type": "address"
        },
        {
          "indexed": false,
          "internalType": "bool",
          "name": "approved",
          "type": "bool"
        }
      ],
      "name": "ApprovalForAll",
      "type": "event"
    },
    {
      "anonymous": false,
      "inputs": [
        {
          "indexed": true,
          "internalType": "uint256",
          "name": "fromTokenId",
          "type": "uint256"
        },
        {
          "indexed": false,
          "internalType": "uint256",
          "name": "toTokenId",
          "type": "uint256"
        },
        {
          "indexed": true,
          "internalType": "address",
          "name": "from",
          "type": "address"
        },
        {
          "indexed": true,
          "internalType": "address",
          "name": "to",
          "type": "address"
        }
      ],
      "name": "ConsecutiveTransfer",
      "type": "event"
    },
    {
      "anonymous": false,
      "inputs": [
        {
          "indexed": true,
          "internalType": "address",
          "name": "previousOwner",
          "type": "address"
        },
        {
          "indexed": true,
          "internalType": "address",
          "name": "newOwner",
          "type": "address"
        }
      ],
      "name": "OwnershipTransferred",
      "type": "event"
    },
    {
      "anonymous": false,
      "inputs": [
        {
          "indexed": true,
          "internalType": "address",
          "name": "from",
          "type": "address"
        },
        {
          "indexed": true,
          "internalType": "address",
          "name": "to",
          "type": "address"
        },
        {
          "indexed": true,
          "internalType": "uint256",
          "name": "tokenId",
          "type": "uint256"
        }
      ],
      "name": "Transfer",
      "type": "event"
    },
    {
      "inputs": [
        {
          "internalType": "address",
          "name": "to",
          "type": "address"
        },
        {
          "internalType": "uint256",
          "name": "tokenId",
          "type": "uint256"
        }
      ],
      "name": "approve",
      "outputs": [],
      "stateMutability": "nonpayable",
      "type": "function"
    },
    {
      "inputs": [
        {
          "internalType": "address",
          "name": "owner",
          "type": "address"
        }
      ],
      "name": "balanceOf",
      "outputs": [
        {
          "internalType": "uint256",
          "name": "",
          "type": "uint256"
        }
      ],
      "stateMutability": "view",
      "type": "function"
    },
    {
      "inputs": [
        {
          "internalType": "uint256",
          "name": "tokenId",
          "type": "uint256"
        }
      ],
      "name": "burn",
      "outputs": [],
      "stateMutability": "nonpayable",
      "type": "function"
    },
    {
      "inputs": [
        {
          "internalType": "uint256",
          "name": "tokenId",
          "type": "uint256"
        }
      ],
      "name": "explicitOwnershipOf",
      "outputs": [
        {
          "components": [
            {
              "internalType": "address",
              "name": "addr",
              "type": "address"
            },
            {
              "internalType": "uint64",
              "name": "startTimestamp",
              "type": "uint64"
            },
            {
              "internalType": "bool",
              "name": "burned",
              "type": "bool"
            },
            {
              "internalType": "uint24",
              "name": "extraData",
              "type": "uint24"
            }
          ],
          "internalType": "struct IERC721A.TokenOwnership",
          "name": "",
          "type": "tuple"
        }
      ],
      "stateMutability": "view",
      "type": "function"
    },
    {
      "inputs": [
        {
          "internalType": "uint256[]",
          "name": "tokenIds",
          "type": "uint256[]"
        }
      ],
      "name": "explicitOwnershipsOf",
      "outputs": [
        {
          "components": [
            {
              "internalType": "address",
              "name": "addr",
              "type": "address"
            },
            {
              "internalType": "uint64",
              "name": "startTimestamp",
              "type": "uint64"
            },
            {
              "internalType": "bool",
              "name": "burned",
              "type": "bool"
            },
            {
              "internalType": "uint24",
              "name": "extraData",
              "type": "uint24"
            }
          ],
          "internalType": "struct IERC721A.TokenOwnership[]",
          "name": "",
          "type": "tuple[]"
        }
      ],
      "stateMutability": "view",
      "type": "function"
    },
    {
      "inputs": [
        {
          "internalType": "uint256",
          "name": "tokenId",
          "type": "uint256"
        }
      ],
      "name": "getApproved",
      "outputs": [
        {
          "internalType": "address",
          "name": "",
          "type": "address"
        }
      ],
      "stateMutability": "view",
      "type": "function"
    },
    {
      "inputs": [
        {
          "internalType": "address",
          "name": "to",
          "type": "address"
        },
        {
          "internalType": "uint256",
          "name": "quantity",
          "type": "uint256"
        }
      ],
      "name": "give",
      "outputs": [],
      "stateMutability": "nonpayable",
      "type": "function"
    },
    {
      "inputs": [
        {
          "internalType": "address[]",
          "name": "to",
          "type": "address[]"
        },
        {
          "internalType": "uint256",
          "name": "quantity",
          "type": "uint256"
        }
      ],
      "name": "giveMany",
      "outputs": [],
      "stateMutability": "nonpayable",
      "type": "function"
    },
    {
      "inputs": [
        {
          "internalType": "address",
          "name": "owner",
          "type": "address"
        },
        {
          "internalType": "address",
          "name": "operator",
          "type": "address"
        }
      ],
      "name": "isApprovedForAll",
      "outputs": [
        {
          "internalType": "bool",
          "name": "",
          "type": "bool"
        }
      ],
      "stateMutability": "view",
      "type": "function"
    },
    {
      "inputs": [],
      "name": "name",
      "outputs": [
        {
          "internalType": "string",
          "name": "",
          "type": "string"
        }
      ],
      "stateMutability": "view",
      "type": "function"
    },
    {
      "inputs": [],
      "name": "owner",
      "outputs": [
        {
          "internalType": "address",
          "name": "",
          "type": "address"
        }
      ],
      "stateMutability": "view",
      "type": "function"
    },
    {
      "inputs": [
        {
          "internalType": "uint256",
          "name": "tokenId",
          "type": "uint256"
        }
      ],
      "name": "ownerOf",
      "outputs": [
        {
          "internalType": "address",
          "name": "",
          "type": "address"
        }
      ],
      "stateMutability": "view",
      "type": "function"
    },
    {
      "inputs": [],
      "name": "renounceOwnership",
      "outputs": [],
      "stateMutability": "nonpayable",
      "type": "function"
    },
    {
      "inputs": [
        {
          "internalType": "address",
          "name": "from",
          "type": "address"
        },
        {
          "internalType": "address",
          "name": "to",
          "type": "address"
        },
        {
          "internalType": "uint256",
          "name": "tokenId",
          "type": "uint256"
        }
      ],
      "name": "safeTransferFrom",
      "outputs": [],
      "stateMutability": "nonpayable",
      "type": "function"
    },
    {
      "inputs": [
        {
          "internalType": "address",
          "name": "from",
          "type": "address"
        },
        {
          "internalType": "address",
          "name": "to",
          "type": "address"
        },
        {
          "internalType": "uint256",
          "name": "tokenId",
          "type": "uint256"
        },
        {
          "internalType": "bytes",
          "name": "_data",
          "type": "bytes"
        }
      ],
      "name": "safeTransferFrom",
      "outputs": [],
      "stateMutability": "nonpayable",
      "type": "function"
    },
    {
      "inputs": [
        {
          "internalType": "address",
          "name": "operator",
          "type": "address"
        },
        {
          "internalType": "bool",
          "name": "approved",
          "type": "bool"
        }
      ],
      "name": "setApprovalForAll",
      "outputs": [],
      "stateMutability": "nonpayable",
      "type": "function"
    },
    {
      "inputs": [
        {
          "internalType": "string",
          "name": "newURI",
          "type": "string"
        }
      ],
      "name": "setBaseURI",
      "outputs": [],
      "stateMutability": "nonpayable",
      "type": "function"
    },
    {
      "inputs": [
        {
          "internalType": "address",
          "name": "burner",
          "type": "address"
        }
      ],
      "name": "setBurner",
      "outputs": [],
      "stateMutability": "nonpayable",
      "type": "function"
    },
    {
      "inputs": [
        {
          "internalType": "bytes4",
          "name": "interfaceId",
          "type": "bytes4"
        }
      ],
      "name": "supportsInterface",
      "outputs": [
        {
          "internalType": "bool",
          "name": "",
          "type": "bool"
        }
      ],
      "stateMutability": "view",
      "type": "function"
    },
    {
      "inputs": [],
      "name": "symbol",
      "outputs": [
        {
          "internalType": "string",
          "name": "",
          "type": "string"
        }
      ],
      "stateMutability": "view",
      "type": "function"
    },
    {
      "inputs": [
        {
          "internalType": "uint256",
          "name": "",
          "type": "uint256"
        }
      ],
      "name": "tokenURI",
      "outputs": [
        {
          "internalType": "string",
          "name": "",
          "type": "string"
        }
      ],
      "stateMutability": "view",
      "type": "function"
    },
    {
      "inputs": [
        {
          "internalType": "address",
          "name": "owner",
          "type": "address"
        }
      ],
      "name": "tokensOfOwner",
      "outputs": [
        {
          "internalType": "uint256[]",
          "name": "",
          "type": "uint256[]"
        }
      ],
      "stateMutability": "view",
      "type": "function"
    },
    {
      "inputs": [
        {
          "internalType": "address",
          "name": "owner",
          "type": "address"
        },
        {
          "internalType": "uint256",
          "name": "start",
          "type": "uint256"
        },
        {
          "internalType": "uint256",
          "name": "stop",
          "type": "uint256"
        }
      ],
      "name": "tokensOfOwnerIn",
      "outputs": [
        {
          "internalType": "uint256[]",
          "name": "",
          "type": "uint256[]"
        }
      ],
      "stateMutability": "view",
      "type": "function"
    },
    {
      "inputs": [],
      "name": "totalSupply",
      "outputs": [
        {
          "internalType": "uint256",
          "name": "",
          "type": "uint256"
        }
      ],
      "stateMutability": "view",
      "type": "function"
    },
    {
      "inputs": [
        {
          "internalType": "address",
          "name": "from",
          "type": "address"
        },
        {
          "internalType": "address",
          "name": "to",
          "type": "address"
        },
        {
          "internalType": "uint256",
          "name": "tokenId",
          "type": "uint256"
        }
      ],
      "name": "transferFrom",
      "outputs": [],
      "stateMutability": "nonpayable",
      "type": "function"
    },
    {
      "inputs": [
        {
          "internalType": "address",
          "name": "newOwner",
          "type": "address"
        }
      ],
      "name": "transferOwnership",
      "outputs": [],
      "stateMutability": "nonpayable",
      "type": "function"
    }
  ],
  "bytecode": {
    "object": "0x60806040523480156200001157600080fd5b5060405162001e6638038062001e66833981016040819052620000349162000138565b6040518060400160405280601481526020017f4d6f6f20576f726c643a2057686974656c697374000000000000000000000000815250604051806040016040528060058152602001641353d3d5d360da1b8152508160029081620000999190620002a3565b506003620000a88282620002a3565b50506000805550620000ba33620000d0565b6009620000c88282620002a3565b50506200036f565b600880546001600160a01b038381166001600160a01b0319831681179093556040519116919082907f8be0079c531659141344cd1fd0a4f28419497f9722a3daafe3b4186f6b6457e090600090a35050565b634e487b7160e01b600052604160045260246000fd5b600060208083850312156200014c57600080fd5b82516001600160401b03808211156200016457600080fd5b818501915085601f8301126200017957600080fd5b8151818111156200018e576200018e62000122565b604051601f8201601f19908116603f01168101908382118183101715620001b957620001b962000122565b816040528281528886848701011115620001d257600080fd5b600093505b82841015620001f65784840186015181850187015292850192620001d7565b82841115620002085760008684830101525b98975050505050505050565b600181811c908216806200022957607f821691505b6020821081036200024a57634e487b7160e01b600052602260045260246000fd5b50919050565b601f8211156200029e57600081815260208120601f850160051c81016020861015620002795750805b601f850160051c820191505b818110156200029a5782815560010162000285565b5050505b505050565b81516001600160401b03811115620002bf57620002bf62000122565b620002d781620002d0845462000214565b8462000250565b602080601f8311600181146200030f5760008415620002f65750858301515b600019600386901b1c1916600185901b1785556200029a565b600085815260208120601f198616915b8281101562000340578886015182559484019460019091019084016200031f565b50858210156200035f5787850151600019600388901b60f8161c191681555b5050505050600190811b01905550565b611ae7806200037f6000396000f3fe608060405234801561001057600080fd5b506004361061018e5760003560e01c80638462151c116100de578063a996d6ce11610097578063c87b56dd11610071578063c87b56dd14610378578063e985e9c51461038b578063f00388f7146103c7578063f2fde38b146103da57600080fd5b8063a996d6ce14610332578063b88d4fde14610345578063c23dc68f1461035857600080fd5b80638462151c146102c05780638da5cb5b146102e057806395d89b41146102f157806399a2557a146102f95780639a007cb91461030c578063a22cb4651461031f57600080fd5b806342842e0e1161014b5780635bbb2177116101255780635bbb2177146102725780636352211e1461029257806370a08231146102a5578063715018a6146102b857600080fd5b806342842e0e1461023957806342966c681461024c57806355f804b31461025f57600080fd5b806301ffc9a71461019357806306fdde03146101bb578063081812fc146101d0578063095ea7b3146101fb57806318160ddd1461021057806323b872dd14610226575b600080fd5b6101a66101a1366004611402565b6103ed565b60405190151581526020015b60405180910390f35b6101c361043f565b6040516101b2919061146c565b6101e36101de36600461147f565b6104d1565b6040516001600160a01b0390911681526020016101b2565b61020e6102093660046114b4565b610515565b005b600154600054035b6040519081526020016101b2565b61020e6102343660046114de565b6105b5565b61020e6102473660046114de565b610758565b61020e61025a36600461147f565b610778565b61020e61026d36600461151a565b610786565b6102856102803660046115d8565b61079b565b6040516101b29190611657565b6101e36102a036600461147f565b610867565b6102186102b3366004611699565b610872565b61020e6108c1565b6102d36102ce366004611699565b6108d5565b6040516101b291906116b4565b6008546001600160a01b03166101e3565b6101c36109de565b6102d36103073660046116ec565b6109ed565b61020e61031a36600461171f565b610b67565b61020e61032d36600461176b565b610bc2565b61020e610340366004611699565b610c57565b61020e6103533660046117bd565b610c81565b61036b61036636600461147f565b610cc5565b6040516101b29190611899565b6101c361038636600461147f565b610d3d565b6101a66103993660046118a7565b6001600160a01b03918216600090815260076020908152604080832093909416825291909152205460ff1690565b61020e6103d53660046114b4565b610dd1565b61020e6103e8366004611699565b610de7565b60006301ffc9a760e01b6001600160e01b03198316148061041e57506380ac58cd60e01b6001600160e01b03198316145b806104395750635b5e139f60e01b6001600160e01b03198316145b92915050565b60606002805461044e906118da565b80601f016020809104026020016040519081016040528092919081815260200182805461047a906118da565b80156104c75780601f1061049c576101008083540402835291602001916104c7565b820191906000526020600020905b8154815290600101906020018083116104aa57829003601f168201915b5050505050905090565b60006104dc82610e62565b6104f9576040516333d1c03960e21b815260040160405180910390fd5b506000908152600660205260409020546001600160a01b031690565b600061052082610867565b9050336001600160a01b038216146105595761053c8133610399565b610559576040516367d9dca160e11b815260040160405180910390fd5b60008281526006602052604080822080546001600160a01b0319166001600160a01b0387811691821790925591518593918516917f8c5be1e5ebec7d5bd14f71427d1e84f3dd0314c0f7b2291e5b200ac8c7c3b92591a4505050565b60006105c082610e89565b9050836001600160a01b0316816001600160a01b0316146105f35760405162a1148160e81b815260040160405180910390fd5b6000828152600660205260409020805461061f8187335b6001600160a01b039081169116811491141790565b61064a5761062d8633610399565b61064a57604051632ce44b5f60e11b815260040160405180910390fd5b6001600160a01b03851661067157604051633a954ecd60e21b815260040160405180910390fd5b801561067c57600082555b6001600160a01b038681166000908152600560205260408082208054600019019055918716808252919020805460010190554260a01b17600160e11b17600085815260046020526040812091909155600160e11b8416900361070e5760018401600081815260046020526040812054900361070c57600054811461070c5760008181526004602052604090208490555b505b83856001600160a01b0316876001600160a01b03167fddf252ad1be2c89b69c2b068fc378daa952ba7f163c4a11628f55a4df523b3ef60405160405180910390a45b505050505050565b61077383838360405180602001604052806000815250610c81565b505050565b610783816001610ef0565b50565b61078e61103a565b600961077382848361195a565b60608160008167ffffffffffffffff8111156107b9576107b96117a7565b60405190808252806020026020018201604052801561080b57816020015b6040805160808101825260008082526020808301829052928201819052606082015282526000199092019101816107d75790505b50905060005b82811461085e5761083986868381811061082d5761082d611a1a565b90506020020135610cc5565b82828151811061084b5761084b611a1a565b6020908102919091010152600101610811565b50949350505050565b600061043982610e89565b60006001600160a01b03821661089b576040516323d3ad8160e21b815260040160405180910390fd5b506001600160a01b031660009081526005602052604090205467ffffffffffffffff1690565b6108c961103a565b6108d36000611094565b565b606060008060006108e585610872565b905060008167ffffffffffffffff811115610902576109026117a7565b60405190808252806020026020018201604052801561092b578160200160208202803683370190505b50905061095860408051608081018252600080825260208201819052918101829052606081019190915290565b60005b8386146109d25761096b816110e6565b915081604001516109ca5781516001600160a01b03161561098b57815194505b876001600160a01b0316856001600160a01b0316036109ca57808387806001019850815181106109bd576109bd611a1a565b6020026020010181815250505b60010161095b565b50909695505050505050565b60606003805461044e906118da565b6060818310610a0f57604051631960ccad60e11b815260040160405180910390fd5b600080610a1b60005490565b905080841115610a29578093505b6000610a3487610872565b905084861015610a535785850381811015610a4d578091505b50610a57565b5060005b60008167ffffffffffffffff811115610a7257610a726117a7565b604051908082528060200260200182016040528015610a9b578160200160208202803683370190505b50905081600003610ab1579350610b6092505050565b6000610abc88610cc5565b905060008160400151610acd575080515b885b888114158015610adf5750848714155b15610b5457610aed816110e6565b92508260400151610b4c5782516001600160a01b031615610b0d57825191505b8a6001600160a01b0316826001600160a01b031603610b4c5780848880600101995081518110610b3f57610b3f611a1a565b6020026020010181815250505b600101610acf565b50505092835250909150505b9392505050565b610b6f61103a565b60005b82811015610bbc57610baa848483818110610b8f57610b8f611a1a565b9050602002016020810190610ba49190611699565b83611122565b80610bb481611a30565b915050610b72565b50505050565b336001600160a01b03831603610beb5760405163b06307db60e01b815260040160405180910390fd5b3360008181526007602090815260408083206001600160a01b03871680855290835292819020805460ff191686151590811790915590519081529192917f17307eab39ab6107e8899845ad3d59bd9653f200f220920489ca2b5937696c31910160405180910390a35050565b610c5f61103a565b600a80546001600160a01b0319166001600160a01b0392909216919091179055565b610c8c8484846105b5565b6001600160a01b0383163b15610bbc57610ca88484848461113c565b610bbc576040516368d2bf6b60e11b815260040160405180910390fd5b6040805160808082018352600080835260208084018290528385018290526060808501839052855193840186528284529083018290529382018190529281018390529091506000548310610d195792915050565b610d22836110e6565b9050806040015115610d345792915050565b610b6083611227565b606060098054610d4c906118da565b80601f0160208091040260200160405190810160405280929190818152602001828054610d78906118da565b8015610dc55780601f10610d9a57610100808354040283529160200191610dc5565b820191906000526020600020905b815481529060010190602001808311610da857829003601f168201915b50505050509050919050565b610dd961103a565b610de38282611122565b5050565b610def61103a565b6001600160a01b038116610e595760405162461bcd60e51b815260206004820152602660248201527f4f776e61626c653a206e6577206f776e657220697320746865207a65726f206160448201526564647265737360d01b60648201526084015b60405180910390fd5b61078381611094565b6000805482108015610439575050600090815260046020526040902054600160e01b161590565b600081600054811015610ed75760008181526004602052604081205490600160e01b82169003610ed5575b80600003610b60575060001901600081815260046020526040902054610eb4565b505b604051636f96cda160e11b815260040160405180910390fd5b6000610efb83610e89565b905080600080610f1986600090815260066020526040902080549091565b915091508415610f5957610f2e81843361060a565b610f5957610f3c8333610399565b610f5957604051632ce44b5f60e11b815260040160405180910390fd5b8015610f6457600082555b6001600160a01b038316600081815260056020526040902080546fffffffffffffffffffffffffffffffff0190554260a01b17600360e01b17600087815260046020526040812091909155600160e11b85169003610ff257600186016000818152600460205260408120549003610ff0576000548114610ff05760008181526004602052604090208590555b505b60405186906000906001600160a01b038616907fddf252ad1be2c89b69c2b068fc378daa952ba7f163c4a11628f55a4df523b3ef908390a45050600180548101905550505050565b6008546001600160a01b031633146108d35760405162461bcd60e51b815260206004820181905260248201527f4f776e61626c653a2063616c6c6572206973206e6f7420746865206f776e65726044820152606401610e50565b600880546001600160a01b038381166001600160a01b0319831681179093556040519116919082907f8be0079c531659141344cd1fd0a4f28419497f9722a3daafe3b4186f6b6457e090600090a35050565b60408051608081018252600080825260208201819052918101829052606081019190915260008281526004602052604090205461043990611257565b610de382826040518060200160405280600081525061129f565b604051630a85bd0160e11b81526000906001600160a01b0385169063150b7a0290611171903390899088908890600401611a57565b6020604051808303816000875af19250505080156111ac575060408051601f3d908101601f191682019092526111a991810190611a94565b60015b61120a573d8080156111da576040519150601f19603f3d011682016040523d82523d6000602084013e6111df565b606091505b508051600003611202576040516368d2bf6b60e11b815260040160405180910390fd5b805181602001fd5b6001600160e01b031916630a85bd0160e11b149050949350505050565b60408051608081018252600080825260208201819052918101829052606081019190915261043961125783610e89565b604080516080810182526001600160a01b038316815260a083901c67ffffffffffffffff166020820152600160e01b831615159181019190915260e89190911c606082015290565b6112a9838361130c565b6001600160a01b0383163b15610773576000548281035b6112d3600086838060010194508661113c565b6112f0576040516368d2bf6b60e11b815260040160405180910390fd5b8181106112c057816000541461130557600080fd5b5050505050565b6000546001600160a01b03831661133557604051622e076360e81b815260040160405180910390fd5b816000036113565760405163b562e8dd60e01b815260040160405180910390fd5b6001600160a01b038316600081815260056020526040902080546801000000000000000185020190554260a01b6001841460e11b1717600082815260046020526040902055808281015b6040516001830192906001600160a01b038716906000907fddf252ad1be2c89b69c2b068fc378daa952ba7f163c4a11628f55a4df523b3ef908290a48082106113a05760005550505050565b6001600160e01b03198116811461078357600080fd5b60006020828403121561141457600080fd5b8135610b60816113ec565b6000815180845260005b8181101561144557602081850181015186830182015201611429565b81811115611457576000602083870101525b50601f01601f19169290920160200192915050565b602081526000610b60602083018461141f565b60006020828403121561149157600080fd5b5035919050565b80356001600160a01b03811681146114af57600080fd5b919050565b600080604083850312156114c757600080fd5b6114d083611498565b946020939093013593505050565b6000806000606084860312156114f357600080fd5b6114fc84611498565b925061150a60208501611498565b9150604084013590509250925092565b6000806020838503121561152d57600080fd5b823567ffffffffffffffff8082111561154557600080fd5b818501915085601f83011261155957600080fd5b81358181111561156857600080fd5b86602082850101111561157a57600080fd5b60209290920196919550909350505050565b60008083601f84011261159e57600080fd5b50813567ffffffffffffffff8111156115b657600080fd5b6020830191508360208260051b85010111156115d157600080fd5b9250929050565b600080602083850312156115eb57600080fd5b823567ffffffffffffffff81111561160257600080fd5b61160e8582860161158c565b90969095509350505050565b80516001600160a01b0316825260208082015167ffffffffffffffff169083015260408082015115159083015260609081015162ffffff16910152565b6020808252825182820181905260009190848201906040850190845b818110156109d25761168683855161161a565b9284019260809290920191600101611673565b6000602082840312156116ab57600080fd5b610b6082611498565b6020808252825182820181905260009190848201906040850190845b818110156109d2578351835292840192918401916001016116d0565b60008060006060848603121561170157600080fd5b61170a84611498565b95602085013595506040909401359392505050565b60008060006040848603121561173457600080fd5b833567ffffffffffffffff81111561174b57600080fd5b6117578682870161158c565b909790965060209590950135949350505050565b6000806040838503121561177e57600080fd5b61178783611498565b91506020830135801515811461179c57600080fd5b809150509250929050565b634e487b7160e01b600052604160045260246000fd5b600080600080608085870312156117d357600080fd5b6117dc85611498565b93506117ea60208601611498565b925060408501359150606085013567ffffffffffffffff8082111561180e57600080fd5b818701915087601f83011261182257600080fd5b813581811115611834576118346117a7565b604051601f8201601f19908116603f0116810190838211818310171561185c5761185c6117a7565b816040528281528a602084870101111561187557600080fd5b82602086016020830137600060208483010152809550505050505092959194509250565b60808101610439828461161a565b600080604083850312156118ba57600080fd5b6118c383611498565b91506118d160208401611498565b90509250929050565b600181811c908216806118ee57607f821691505b60208210810361190e57634e487b7160e01b600052602260045260246000fd5b50919050565b601f82111561077357600081815260208120601f850160051c8101602086101561193b5750805b601f850160051c820191505b8181101561075057828155600101611947565b67ffffffffffffffff831115611972576119726117a7565b6119868361198083546118da565b83611914565b6000601f8411600181146119ba57600085156119a25750838201355b600019600387901b1c1916600186901b178355611305565b600083815260209020601f19861690835b828110156119eb57868501358255602094850194600190920191016119cb565b5086821015611a085760001960f88860031b161c19848701351681555b505060018560011b0183555050505050565b634e487b7160e01b600052603260045260246000fd5b600060018201611a5057634e487b7160e01b600052601160045260246000fd5b5060010190565b6001600160a01b0385811682528416602082015260408101839052608060608201819052600090611a8a9083018461141f565b9695505050505050565b600060208284031215611aa657600080fd5b8151610b60816113ec56fea2646970667358221220fba67ed9fff15867538d22cbd79dea4d66937e41a118cc6403a5d9760704e27d64736f6c634300080f0033",
    "linkReferences": {}
  },
  "methodIdentifiers": {
    "approve(address,uint256)": "095ea7b3",
    "balanceOf(address)": "70a08231",
    "burn(uint256)": "42966c68",
    "explicitOwnershipOf(uint256)": "c23dc68f",
    "explicitOwnershipsOf(uint256[])": "5bbb2177",
    "getApproved(uint256)": "081812fc",
    "give(address,uint256)": "f00388f7",
    "giveMany(address[],uint256)": "9a007cb9",
    "isApprovedForAll(address,address)": "e985e9c5",
    "name()": "06fdde03",
    "owner()": "8da5cb5b",
    "ownerOf(uint256)": "6352211e",
    "renounceOwnership()": "715018a6",
    "safeTransferFrom(address,address,uint256)": "42842e0e",
    "safeTransferFrom(address,address,uint256,bytes)": "b88d4fde",
    "setApprovalForAll(address,bool)": "a22cb465",
    "setBaseURI(string)": "55f804b3",
    "setBurner(address)": "a996d6ce",
    "supportsInterface(bytes4)": "01ffc9a7",
    "symbol()": "95d89b41",
    "tokenURI(uint256)": "c87b56dd",
    "tokensOfOwner(address)": "8462151c",
    "tokensOfOwnerIn(address,uint256,uint256)": "99a2557a",
    "totalSupply()": "18160ddd",
    "transferFrom(address,address,uint256)": "23b872dd",
    "transferOwnership(address)": "f2fde38b"
  },
  "id": 34
}