{
  "abi": [
    {
      "inputs": [
        {
          "internalType": "address",
          "name": "collection",
          "type": "address"
        },
        {
          "internalType": "address",
          "name": "rewardToken",
          "type": "address"
        }
      ],
      "stateMutability": "nonpayable",
      "type": "constructor"
    },
    {
      "anonymous": false,
      "inputs": [
        {
          "indexed": true,
          "internalType": "address",
          "name": "previousOwner",
          "type": "address"
        },
        {
          "indexed": true,
          "internalType": "address",
          "name": "newOwner",
          "type": "address"
        }
      ],
      "name": "OwnershipTransferred",
      "type": "event"
    },
    {
      "anonymous": false,
      "inputs": [
        {
          "indexed": false,
          "internalType": "address",
          "name": "account",
          "type": "address"
        }
      ],
      "name": "Paused",
      "type": "event"
    },
    {
      "anonymous": false,
      "inputs": [
        {
          "indexed": false,
          "internalType": "address",
          "name": "account",
          "type": "address"
        }
      ],
      "name": "Unpaused",
      "type": "event"
    },
    {
      "inputs": [
        {
          "internalType": "address",
          "name": "owner",
          "type": "address"
        }
      ],
      "name": "balanceOf",
      "outputs": [
        {
          "internalType": "uint256",
          "name": "",
          "type": "uint256"
        }
      ],
      "stateMutability": "view",
      "type": "function"
    },
    {
      "inputs": [
        {
          "internalType": "address",
          "name": "owner",
          "type": "address"
        }
      ],
      "name": "calculateRewards",
      "outputs": [
        {
          "internalType": "uint256",
          "name": "",
          "type": "uint256"
        }
      ],
      "stateMutability": "view",
      "type": "function"
    },
    {
      "inputs": [],
      "name": "claim",
      "outputs": [],
      "stateMutability": "nonpayable",
      "type": "function"
    },
    {
      "inputs": [],
      "name": "claimAndUnstake",
      "outputs": [],
      "stateMutability": "nonpayable",
      "type": "function"
    },
    {
      "inputs": [
        {
          "internalType": "address",
          "name": "owner",
          "type": "address"
        }
      ],
      "name": "emergencyUnstake",
      "outputs": [],
      "stateMutability": "nonpayable",
      "type": "function"
    },
    {
      "inputs": [],
      "name": "interval",
      "outputs": [
        {
          "internalType": "uint256",
          "name": "",
          "type": "uint256"
        }
      ],
      "stateMutability": "view",
      "type": "function"
    },
    {
      "inputs": [
        {
          "internalType": "address",
          "name": "",
          "type": "address"
        },
        {
          "internalType": "address",
          "name": "",
          "type": "address"
        },
        {
          "internalType": "uint256",
          "name": "",
          "type": "uint256"
        },
        {
          "internalType": "bytes",
          "name": "",
          "type": "bytes"
        }
      ],
      "name": "onERC721Received",
      "outputs": [
        {
          "internalType": "bytes4",
          "name": "",
          "type": "bytes4"
        }
      ],
      "stateMutability": "pure",
      "type": "function"
    },
    {
      "inputs": [],
      "name": "owner",
      "outputs": [
        {
          "internalType": "address",
          "name": "",
          "type": "address"
        }
      ],
      "stateMutability": "view",
      "type": "function"
    },
    {
      "inputs": [
        {
          "internalType": "uint256",
          "name": "tokenId",
          "type": "uint256"
        }
      ],
      "name": "ownerOf",
      "outputs": [
        {
          "internalType": "address",
          "name": "",
          "type": "address"
        }
      ],
      "stateMutability": "view",
      "type": "function"
    },
    {
      "inputs": [],
      "name": "paused",
      "outputs": [
        {
          "internalType": "bool",
          "name": "",
          "type": "bool"
        }
      ],
      "stateMutability": "view",
      "type": "function"
    },
    {
      "inputs": [],
      "name": "renounceOwnership",
      "outputs": [],
      "stateMutability": "nonpayable",
      "type": "function"
    },
    {
      "inputs": [],
      "name": "reward",
      "outputs": [
        {
          "internalType": "uint256",
          "name": "",
          "type": "uint256"
        }
      ],
      "stateMutability": "view",
      "type": "function"
    },
    {
      "inputs": [
        {
          "internalType": "address",
          "name": "collection",
          "type": "address"
        }
      ],
      "name": "setCollection",
      "outputs": [],
      "stateMutability": "nonpayable",
      "type": "function"
    },
    {
      "inputs": [
        {
          "internalType": "uint256",
          "name": "newInterval",
          "type": "uint256"
        }
      ],
      "name": "setInterval",
      "outputs": [],
      "stateMutability": "nonpayable",
      "type": "function"
    },
    {
      "inputs": [
        {
          "internalType": "uint256",
          "name": "newReward",
          "type": "uint256"
        }
      ],
      "name": "setReward",
      "outputs": [],
      "stateMutability": "nonpayable",
      "type": "function"
    },
    {
      "inputs": [
        {
          "internalType": "address",
          "name": "rewardToken",
          "type": "address"
        }
      ],
      "name": "setRewardToken",
      "outputs": [],
      "stateMutability": "nonpayable",
      "type": "function"
    },
    {
      "inputs": [
        {
          "internalType": "uint256",
          "name": "tokenId",
          "type": "uint256"
        }
      ],
      "name": "stake",
      "outputs": [],
      "stateMutability": "nonpayable",
      "type": "function"
    },
    {
      "inputs": [
        {
          "internalType": "uint256[]",
          "name": "tokenIds",
          "type": "uint256[]"
        }
      ],
      "name": "stakeMany",
      "outputs": [],
      "stateMutability": "nonpayable",
      "type": "function"
    },
    {
      "inputs": [
        {
          "internalType": "uint256",
          "name": "tokenId",
          "type": "uint256"
        }
      ],
      "name": "stakingInfo",
      "outputs": [
        {
          "internalType": "uint256",
          "name": "",
          "type": "uint256"
        },
        {
          "internalType": "uint256",
          "name": "",
          "type": "uint256"
        },
        {
          "internalType": "address",
          "name": "",
          "type": "address"
        }
      ],
      "stateMutability": "view",
      "type": "function"
    },
    {
      "inputs": [],
      "name": "togglePause",
      "outputs": [],
      "stateMutability": "nonpayable",
      "type": "function"
    },
    {
      "inputs": [
        {
          "internalType": "address",
          "name": "owner",
          "type": "address"
        }
      ],
      "name": "tokensOfOwner",
      "outputs": [
        {
          "internalType": "uint256[]",
          "name": "",
          "type": "uint256[]"
        }
      ],
      "stateMutability": "view",
      "type": "function"
    },
    {
      "inputs": [],
      "name": "totalStaked",
      "outputs": [
        {
          "internalType": "uint256",
          "name": "",
          "type": "uint256"
        }
      ],
      "stateMutability": "view",
      "type": "function"
    },
    {
      "inputs": [
        {
          "internalType": "address",
          "name": "newOwner",
          "type": "address"
        }
      ],
      "name": "transferOwnership",
      "outputs": [],
      "stateMutability": "nonpayable",
      "type": "function"
    },
    {
      "inputs": [
        {
          "internalType": "uint256",
          "name": "tokenId",
          "type": "uint256"
        }
      ],
      "name": "unstake",
      "outputs": [],
      "stateMutability": "nonpayable",
      "type": "function"
    },
    {
      "inputs": [
        {
          "internalType": "uint256[]",
          "name": "tokenIds",
          "type": "uint256[]"
        }
      ],
      "name": "unstakeMany",
      "outputs": [],
      "stateMutability": "nonpayable",
      "type": "function"
    }
  ],
  "bytecode": {
    "object": "0x6080604052670de0b6b3a7640000600255620151806003553480156200002457600080fd5b50604051620017ba380380620017ba833981016040819052620000479162000104565b6000805460ff191690556200005c336200008e565b600680546001600160a01b039384166001600160a01b031991821617909155600780549290931691161790556200013c565b600080546001600160a01b03838116610100818102610100600160a81b0319851617855560405193049190911692909183917f8be0079c531659141344cd1fd0a4f28419497f9722a3daafe3b4186f6b6457e091a35050565b80516001600160a01b0381168114620000ff57600080fd5b919050565b600080604083850312156200011857600080fd5b6200012383620000e7565b91506200013360208401620000e7565b90509250929050565b61166e806200014c6000396000f3fe608060405234801561001057600080fd5b50600436106101735760003560e01c8063715018a6116100de5780638da5cb5b11610097578063ad004e2011610071578063ad004e201461037f578063c4ae316814610387578063f2fde38b1461038f578063fe939afc146103a257600080fd5b80638da5cb5b1461034d578063947a36fb14610363578063a694fc3a1461036c57600080fd5b8063715018a6146102bf578063768b5fd5146102c7578063817b1cd2146102da578063819ddb74146102e35780638462151c1461031a5780638aee81271461033a57600080fd5b8063420ed8ea11610130578063420ed8ea1461021a5780634e71d92d1461022d5780635c975abb146102355780636352211e1461024b57806364ab86751461028357806370a082311461029657600080fd5b80630d50c18914610178578063150b7a021461018d578063228cb733146101ca57806322a90082146101e1578063293be456146101f45780632e17de7814610207575b600080fd5b61018b610186366004611346565b6103b5565b005b6101ac61019b3660046113d0565b630a85bd0160e11b95945050505050565b6040516001600160e01b031990911681526020015b60405180910390f35b6101d360025481565b6040519081526020016101c1565b61018b6101ef36600461146f565b610541565b61018b61020236600461146f565b61054e565b61018b61021536600461146f565b61055b565b61018b610228366004611488565b610665565b61018b610801565b60005460ff1660405190151581526020016101c1565b61026b61025936600461146f565b60009081526004602052604090205490565b6040516001600160a01b0390911681526020016101c1565b6101d3610291366004611488565b610988565b6101d36102a4366004611488565b6001600160a01b031660009081526005602052604090205490565b61018b610a4b565b61018b6102d5366004611488565b610a5f565b6101d360015481565b6102f66102f136600461146f565b610a89565b6040805193845260208401929092526001600160a01b0316908201526060016101c1565b61032d610328366004611488565b610b80565b6040516101c191906114ac565b61018b610348366004611488565b610cbf565b60005461010090046001600160a01b031661026b565b6101d360035481565b61018b61037a36600461146f565b610ce9565b61018b610d9d565b61018b610f90565b61018b61039d366004611488565b610fb2565b61018b6103b0366004611346565b61102b565b60005b818110156104fe57336103ef8484848181106103d6576103d66114f0565b9050602002013560009081526004602052604090205490565b6001600160a01b0316146104405760405162461bcd60e51b81526020600482015260136024820152722737ba103a3432903a37b5b2b71037bbb732b960691b60448201526064015b60405180910390fd5b6006546001600160a01b031663b88d4fde3033868686818110610465576104656114f0565b905060200201356040518463ffffffff1660e01b815260040161048a93929190611506565b600060405180830381600087803b1580156104a457600080fd5b505af11580156104b8573d6000803e3d6000fd5b50505050600460008484848181106104d2576104d26114f0565b9050602002013581526020019081526020016000206000905580806104f69061154f565b9150506103b8565b50336000908152600560205260408120805483929061051e908490611568565b909155505060018054829190600090610538908490611568565b90915550505050565b61054961113d565b600355565b61055661113d565b600255565b6000818152600460205260409020546001600160a01b031633146105b75760405162461bcd60e51b81526020600482015260136024820152722737ba103a3432903a37b5b2b71037bbb732b960691b6044820152606401610437565b600654604051635c46a7ef60e11b81526001600160a01b039091169063b88d4fde906105eb90309033908690600401611506565b600060405180830381600087803b15801561060557600080fd5b505af1158015610619573d6000803e3d6000fd5b50505060008281526004602090815260408083208390553383526005909152812080549250906106488361157f565b90915550506001805490600061065d8361157f565b919050555050565b61066d61113d565b6001600160a01b0381166000908152600560205260409020546106dc5760405162461bcd60e51b815260206004820152602160248201527f5468697320616464726573732068617665206e6f20746f6b656e207374616b656044820152601960fa1b6064820152608401610437565b60006106e782610b80565b905060005b81518110156107bd5760065482516001600160a01b039091169063b88d4fde9030908690869086908110610722576107226114f0565b60200260200101516040518463ffffffff1660e01b815260040161074893929190611506565b600060405180830381600087803b15801561076257600080fd5b505af1158015610776573d6000803e3d6000fd5b5050505060046000838381518110610790576107906114f0565b602002602001015181526020019081526020016000206000905580806107b59061154f565b9150506106ec565b5080516001600160a01b038316600090815260056020526040812080549091906107e8908490611568565b9091555050805160018054600090610538908490611568565b336000908152600560205260409020546108585760405162461bcd60e51b81526020600482015260186024820152774e6f20746f6b656e207374616b656420746f20636c61696d60401b6044820152606401610437565b6000610874604080518082019091526000808252602082015290565b60005b60015481101561091f576000818152600460205260409020546108999061119d565b9150336001600160a01b031682600001516001600160a01b03160361090d5760035460208301516108d49067ffffffffffffffff1642611568565b6108de91906115ac565b6002546108eb91906115ce565b6108f590846115ed565b92504260a01b33176000828152600460205260409020555b806109178161154f565b915050610877565b506007546040516340c10f1960e01b8152336004820152602481018490526001600160a01b03909116906340c10f1990604401600060405180830381600087803b15801561096c57600080fd5b505af1158015610980573d6000803e3d6000fd5b505050505050565b6001600160a01b03811660009081526005602052604081205481036109af57506000919050565b60006109cb604080518082019091526000808252602082015290565b60005b600154811015610a42576000818152600460205260409020546109f09061119d565b9150846001600160a01b031682600001516001600160a01b031603610a3a57600354826020015167ffffffffffffffff16420381610a3057610a30611596565b0460025402830192505b6001016109ce565b50909392505050565b610a5361113d565b610a5d60006111cb565b565b610a6761113d565b600680546001600160a01b0319166001600160a01b0392909216919091179055565b6006546040516331a9108f60e11b8152600481018390526000918291829130916001600160a01b0390911690636352211e90602401602060405180830381865afa158015610adb573d6000803e3d6000fd5b505050506040513d601f19601f82011682018060405250810190610aff9190611605565b6001600160a01b031614610b4a5760405162461bcd60e51b8152602060048201526012602482015271151bdad95b881a5cdb89dd081cdd185ad95960721b6044820152606401610437565b600084815260046020526040812054610b629061119d565b60208101519051959667ffffffffffffffff90911695945092505050565b6001600160a01b03811660009081526005602052604081205460609103610bb557505060408051600081526020810190915290565b6001600160a01b038216600090815260056020526040812054819067ffffffffffffffff811115610be857610be8611622565b604051908082528060200260200182016040528015610c11578160200160208202803683370190505b509050610c2e604080518082019091526000808252602082015290565b60005b6001600160a01b0386166000908152600560205260409020548414610cb557600081815260046020526040902054610c689061119d565b9150856001600160a01b031682600001516001600160a01b031603610cad5780838580600101965081518110610ca057610ca06114f0565b6020026020010181815250505b600101610c31565b5090949350505050565b610cc761113d565b600780546001600160a01b0319166001600160a01b0392909216919091179055565b610cf1611224565b600654604051635c46a7ef60e11b81526001600160a01b039091169063b88d4fde90610d2590339030908690600401611506565b600060405180830381600087803b158015610d3f57600080fd5b505af1158015610d53573d6000803e3d6000fd5b5050506000828152600460209081526040808320334260a01b81179091558352600590915281208054925090610d888361154f565b90915550506001805490600061065d8361154f565b33600090815260056020526040902054610df45760405162461bcd60e51b81526020600482015260186024820152774e6f20746f6b656e207374616b656420746f20636c61696d60401b6044820152606401610437565b600080610e11604080518082019091526000808252602082015290565b60005b600154811015610f0657600081815260046020526040902054610e369061119d565b9150336001600160a01b031682600001516001600160a01b031603610efe57600654604051635c46a7ef60e11b81526001600160a01b039091169063b88d4fde90610e8990309033908690600401611506565b600060405180830381600087803b158015610ea357600080fd5b505af1158015610eb7573d6000803e3d6000fd5b50505050600354826020015167ffffffffffffffff16420381610edc57610edc611596565b6002546000848152600460205260408120559190040293909301926001909201915b600101610e14565b5033600081815260056020526040908190208054859003905560018054859003905560075490516340c10f1960e01b81526004810192909252602482018590526001600160a01b0316906340c10f1990604401600060405180830381600087803b158015610f7357600080fd5b505af1158015610f87573d6000803e3d6000fd5b50505050505050565b610f9861113d565b60005460ff16610faa57610a5d61126a565b610a5d6112c4565b610fba61113d565b6001600160a01b03811661101f5760405162461bcd60e51b815260206004820152602660248201527f4f776e61626c653a206e6577206f776e657220697320746865207a65726f206160448201526564647265737360d01b6064820152608401610437565b611028816111cb565b50565b611033611224565b60005b81811015611103576006546001600160a01b031663b88d4fde3330868686818110611063576110636114f0565b905060200201356040518463ffffffff1660e01b815260040161108893929190611506565b600060405180830381600087803b1580156110a257600080fd5b505af11580156110b6573d6000803e3d6000fd5b5050504260a01b33179050600460008585858181106110d7576110d76114f0565b9050602002013581526020019081526020016000208190555080806110fb9061154f565b915050611036565b5033600090815260056020526040812080548392906111239084906115ed565b9091555050600180548291906000906105389084906115ed565b6000546001600160a01b03610100909104163314610a5d5760405162461bcd60e51b815260206004820181905260248201527f4f776e61626c653a2063616c6c6572206973206e6f7420746865206f776e65726044820152606401610437565b604080518082019091526001600160a01b038216815260a09190911c67ffffffffffffffff16602082015290565b600080546001600160a01b03838116610100818102610100600160a81b0319851617855560405193049190911692909183917f8be0079c531659141344cd1fd0a4f28419497f9722a3daafe3b4186f6b6457e091a35050565b60005460ff1615610a5d5760405162461bcd60e51b815260206004820152601060248201526f14185d5cd8589b194e881c185d5cd95960821b6044820152606401610437565b611272611224565b6000805460ff191660011790557f62e78cea01bee320cd4e420270b5ea74000d11b0c9f74754ebdbfc544b05a2586112a73390565b6040516001600160a01b03909116815260200160405180910390a1565b6112cc6112fd565b6000805460ff191690557f5db9ee0a495bf2e6ff9c91a7834c1ba4fdd244a5e8aa4e537bd38aeae4b073aa336112a7565b60005460ff16610a5d5760405162461bcd60e51b815260206004820152601460248201527314185d5cd8589b194e881b9bdd081c185d5cd95960621b6044820152606401610437565b6000806020838503121561135957600080fd5b823567ffffffffffffffff8082111561137157600080fd5b818501915085601f83011261138557600080fd5b81358181111561139457600080fd5b8660208260051b85010111156113a957600080fd5b60209290920196919550909350505050565b6001600160a01b038116811461102857600080fd5b6000806000806000608086880312156113e857600080fd5b85356113f3816113bb565b94506020860135611403816113bb565b935060408601359250606086013567ffffffffffffffff8082111561142757600080fd5b818801915088601f83011261143b57600080fd5b81358181111561144a57600080fd5b89602082850101111561145c57600080fd5b9699959850939650602001949392505050565b60006020828403121561148157600080fd5b5035919050565b60006020828403121561149a57600080fd5b81356114a5816113bb565b9392505050565b6020808252825182820181905260009190848201906040850190845b818110156114e4578351835292840192918401916001016114c8565b50909695505050505050565b634e487b7160e01b600052603260045260246000fd5b6001600160a01b039384168152919092166020820152604081019190915260806060820181905260009082015260a00190565b634e487b7160e01b600052601160045260246000fd5b60006001820161156157611561611539565b5060010190565b60008282101561157a5761157a611539565b500390565b60008161158e5761158e611539565b506000190190565b634e487b7160e01b600052601260045260246000fd5b6000826115c957634e487b7160e01b600052601260045260246000fd5b500490565b60008160001904831182151516156115e8576115e8611539565b500290565b6000821982111561160057611600611539565b500190565b60006020828403121561161757600080fd5b81516114a5816113bb565b634e487b7160e01b600052604160045260246000fdfea2646970667358221220f8912b486e6c741467c1e9379af7f3d9d850e0a46b8254a64f1c9598d0f0e9cc64736f6c634300080f0033",
    "linkReferences": {}
  },
  "methodIdentifiers": {
    "balanceOf(address)": "70a08231",
    "calculateRewards(address)": "64ab8675",
    "claim()": "4e71d92d",
    "claimAndUnstake()": "ad004e20",
    "emergencyUnstake(address)": "420ed8ea",
    "interval()": "947a36fb",
    "onERC721Received(address,address,uint256,bytes)": "150b7a02",
    "owner()": "8da5cb5b",
    "ownerOf(uint256)": "6352211e",
    "paused()": "5c975abb",
    "renounceOwnership()": "715018a6",
    "reward()": "228cb733",
    "setCollection(address)": "768b5fd5",
    "setInterval(uint256)": "22a90082",
    "setReward(uint256)": "293be456",
    "setRewardToken(address)": "8aee8127",
    "stake(uint256)": "a694fc3a",
    "stakeMany(uint256[])": "fe939afc",
    "stakingInfo(uint256)": "819ddb74",
    "togglePause()": "c4ae3168",
    "tokensOfOwner(address)": "8462151c",
    "totalStaked()": "817b1cd2",
    "transferOwnership(address)": "f2fde38b",
    "unstake(uint256)": "2e17de78",
    "unstakeMany(uint256[])": "0d50c189"
  },
  "id": 32
}